:030000000220409B
:0C204000787FE4F6D8FD7581210220872E
:0C000300000000000000000000000000F1
:0B280100EF1FAC0670011E4C70F622A9
:10002A00AB07AA06EB1BAE0270011A4E60097FAA43
:08003A007E0512280180ED2271
:101CF400907120E04480F07F057E00122801E4FF0B
:101D0400FE12002A75A75575AC589071327450F0C4
:101D14009071307403F0907136742FF07F18EF24B3
:101D240066FDE434718D82F583E4F00FEFB433EE95
:101D3400904011E4935407FF90711CE054F84FF065
:101D4400904017E493547FFF90711DE054804FF04E
:101D5400904010E493FF5401C43333335480FE9015
:101D64007123E0547F4EF0EFC313543F4440FFA36C
:101D7400E054804FF0904012E493FF540FFE9071B2
:101D840046E054F04EF0EFC4540FFF90714FE0540E
:101D9400F04FF0904013E493543FFF907140E054AF
:101DA400C04FF0904014E493907126F0904015E4F5
:0E1DB40093907128F0904016E49390712AF0FD
:011DC20022FE
:070FB00044634B428C00007A
:10268B007417F0A37470F022C390631EE0947090E3
:10269B00631DE0941722C3906320E0947090631F36
:0426AB00E09417227E
:101E6D001226934003021EF41226A1507AE4FFFEBF
:101E7D007D807CBF90634B1206E112004CE4FBFAAF
:101E8D0079A87842120246E4FBFA798078BF1200F5
:101E9D004C90634F1206FD90634B1206C5E4FBFA9E
:101EAD00F9783F12004C90634B1206FD90634F1270
:101EBD0006C59063251206FD7F007E007DA07C4047
:101ECD00121316E4FBFA7970784212013D1202E307
:101EDD0090631DEEF0A3EFF090631DE0FFA3E09083
:101EED00631FCFF0A3EFF012269350051226A140E9
:0E1EFD000C90631D12268B90631F12268B2201
:1018120075D9DD121CF475D95590715EE054FEF055
:1018220075D9BBD20812260D122770122755121D28
:10183200C31224711227151226F41224E4122782ED
:101842007F0A7E0012002A90635912268B90631938
:1018520012268B90631412268B90631612268BC26B
:1018620094E490631DF0A3F090631FF0A3F09063E3
:1018720059E0FEA3E0FFC390631EE09F90631DE06A
:101882009E4014906359E0FEA3E0FF906320E09F26
:1018920090631FE09E5028121929300302C20330C0
:1018A2000905C209121E6D90631DE0FEA3E0FF123E
:1018B200280C90631FE0FEA3E0FF12281580AF9072
:1018C200631DE0FFA3E0906310CFF0A3EFF09063FD
:1018D2001FE0FFA3E0906312CFF0A3EFF0C2081263
:1018E2001929121C201222B112257FC29430040C35
:1018F2007B017A627985121183120AEF90630CE000
:10190200FEA3E0FF122153906310EEF0A3EFF090DC
:10191200630EE0FEA3E0FF122153906312EEF0A3E8
:07192200EFF01226AF80B8C0
:100FB7004263141770426316177042631917704122
:100FC70063180042631B177042630C17704263106B
:0C0FD700177042630E177042631217700F
:10254C00E0FEA3E0FFC3906322E09F906321E09E36
:10255C0022E0FFA3E0CF906321F0A3EFF022AC06C2
:10256C00ECF218EFF27817E222E47B707A17F9F8A4
:03257C000205EE67
:101DC3007812E24401F278567407F278277417F216
:101DD30018746FF27833E4F218F27819E24401F2DE
:101DE3007811E24401F27817E24401F27812E244F6
:101DF30001F27814E24401F27818E24401F278D354
:101E0300E254CFF2E24410F2E254FCF2E24401F273
:101E130090718AE4F090718C740AF07812E24402B3
:101E2300F278577407F278297417F218746FF278FE
:101E330037E4F218F27819E24402F27811E244022C
:101E4300F27817E24402F27812E24402F27814E2E2
:101E53004402F27818E24402F278D3E254F3F2E255
:0A1E63004404F290718B7409F02220
:09280C00783312256A4401F2221E
:09281500783712256A4402F22210
:0C27DD007818E230E0037F01227F002228
:0C27E9007818E230E1037F01227F00221B
:0D27C3007818E24401F290718C740AF02243
:0E000F007818E254FEF290718CE4F0D2962242
:0D27D0007818E24402F290718B7409F02237
:0E27B5007818E254FDF290718BE4F0D2952278
:10215300E4906321F0A3F09063237417F0A37470E9
:10216300F0906318E0600F90631BE0FDA3E09063C1
:1021730023CDF0A3EDF0906359E0FCA3E0FD12073B
:10218300BF122575A804A905AA06AB07906323E02F
:10219300FEA3E0FFE4FCFD120563122575EE122594
:1021A3006290631412254C400690631412255D90CF
:1021B300631612254C400690631612255D90631931
:1021C30012254C400690631912255D906321E0FEB1
:0321D300A3E0FF87
:0121D60022E6
:100FE300416302004162FF00416304004163070063
:100FF30041630600C101416305004163030041628F
:10100300DE00602062DFFFFF000000000000000040
:1010130000000000000000000000000000000000CD
:101023000000000000004462CD000013884162CA42
:10103300004162CB00C1004162CC004262D10FFF8C
:101043004162D3004462D4000000004262D8000031
:051053004262DAFFFF1C
:10243100907123E054F8F0E0441EF090712274078B
:10244100F0227FEA7E0B9062CDFDFC1206E1C30211
:10245100068E90632FE0FCA3E0FD22E0FF90633045
:10246100E09F90632FE09E229062D3E0C3941422F8
:10260D0078F2E24403F278E3E244C0F278F0E25467
:10261D00FDF208E254FDF208E2440CF278D0E254E7
:0D262D00F7F208E254F7F208E244C0F2228E
:1027700043AA04D2AF786AE24479F27F017E000274
:02278000002A2D
:10235C0043AA04D2AFEF24FE601C14602114602643
:10236C002403702E907123E054D8F0E0441D122405
:10237C003B759917801C12243175991980141224FD
:10238C0031759918800C907123E054D8122437754C
:09239C00990B7869E24448F22231
:1023A500EF24FE601714602114602B24037037900E
:1023B5006300ECF0A3EDF09062FF8027906308ECDA
:1023C500F0A3EDF0906304801A9062DCECF0A3EDCD
:1023D500F0906307800DAF0590630AECF0A3EFF072
:0723E5009063067401F02271
:1025B100E4FDFCEF24FE600F14601114601324038A
:1025C1007017906300800D90630880089062DC8032
:0D25D1000390630AE0FCA3E0FDAE04AF053B
:0125DE0022DA
:1025DF00E4FEEF24FE6011146015146019240370DB
:1025EF001A9062FFE0FE8013906304E0FE800C906F
:0D25FF006307E0FE8005906306E0FEAF0676
:01260C0022AB
:10266400EF24FE601014601314601624037017E442
:102674009062FFF022E4906304F022E4906307F098
:0726840022E4906306F0223E
:0B1C2000906302E064027003021CF3FA
:101C2B009062CAE004F0E0C394645003021CF3E436
:011C3B00F0B8
:101C3C007F031225DFEF60207F031225B17C007D2E
:101C4C000C1207BFE47B0AFAF9F81205EE9062CD8C
:0E1C5C001206FD7F03122664906302E07028DA
:101C6A0012244350089062CBE004F08005E49062AD
:101C7A00CBF09062CBE0C3940AE44007F090630291
:081C8A0004F022906302F02235
:081C9200906302E06401705947
:101C9A0020000FD2009063531207090000000012BF
:0F1CAA0027F5E47F307E7590635312244A403A49
:101CB900E412244350089062CCE004F08005E490DB
:101CC90062CCF09062CCE0C3940A4018E4F09063CF
:101CD900027402F01227A59063531207090000004D
:0A1CE90000C200229063027401F0B3
:011CF30022CE
:10257F00906302E07008300728C20702080A9063D0
:10258F0002E0B4010B906314740BF0A374B8F02243
:10259F00906302E0B4020A9063147405F0A374DC34
:0225AF00F02218
:1022B1007F041225DFEF60127F041225B19062D1F5
:1022C100EEF0A3EFF07F04122664906305E0702026
:1022D100D39062D2E094209062D1E0940E5004D267
:1022E100018002C2019063197417F0A37470F02287
:1022F100C39062D2E094C89062D1E0940E4002C2D1
:0B230100019063197405F0A374DCF078
:01230C0022AE
:030042000215B5EF
:1015B500C0E0C0F0C083C082C0D075D000C000C0FC
:1015C50001C002C003C004C005C006C007786BE2B5
:0615D50020E1030216CE26
:1015DB00AF93EF75F010A4FFE594C4540FFDEF4DDE
:1015EB00FF90632FE5F0F0A3EFF0E24402F290637B
:0915FB0003E0640260030216A380
:10160400122469505EE004F0E0C39402404A906200
:10161400D8E0FEA3D312245C400CE0FFA3E0906268
:10162400D8CFF0A3EFF09062DAE0FEA3C312245CFB
:10163400500CE0FFA3E09062DACFF0A3EFF09062E9
:10164400D41206E190632FE0FEA3E0FFE4FCFD1258
:1016540005569062D41206FD12246950067869E298
:101664004401F21224694062A31206C578041206EA
:101674009FAD07AC067F011223A59063037403F0AA
:101684009062D3E4F09062D8F0A3F09062DA74FF31
:0D169400F0A3F09062D412070900000000DE
:1016A100802B906303E0B405071224537F02801A54
:1016B100906303E0B407071224537F03800C906307
:0D16C10003E0B409081224537F041223A58E
:1016CE00D007D006D005D004D003D002D001D00070
:0B16DE00D0D0D082D083D0F0D0E0321A
:1010580041634A00C1094263400000426342000004
:0C106800426344000044634600000000A6
:10263A009063461206C5EF2401FFE43EFEE43DFD29
:10264A00E43CFC9063460206FDE475F00102054095
:0A265A009063461206E1C302068EEB
:1027550043A820D2AF75D10178957401F21874762B
:0B276500F2789174A0F21874FDF222CB
:03001E0002147C4D
:10147C00C0E0C0F0C083C082C0D075D000C000C036
:10148C0001C002C003C004C005C006C0077891E2C9
:10149C0020E70302159AE24480F290634AE004F0DC
:1014AC00E0C3940D4004E4F0D209906286E0C3944A
:0614BC00FF5003E004F004
:1014C20030042590626CE0601F906340122653C383
:1014D200906341E09460906340E094EA4011E4F04C
:0F14E200A3F090626CF08007906340E4F0A3F0F9
:1014F100300127906344122653906342E4F0A3F035
:10150100C3906345E09432906344E09400402FE43B
:10151100F0A3F090630504F08024906342122653F7
:10152100906344E4F0A3F0C3906343E0944090637C
:0E15310042E0941F4008E4F0A3F0906305F040
:10153F00906318E0702012263A7F807EEE7D367C15
:10154F000012265A4010906346120709000000004F
:10155F009063187401F0906318E0602F12263AE43C
:10156F007FE87E03FDFC12265A4020906346120747
:10157F000900000000D390631CE094C090631BE04F
:0B158F009412400774FFF5F0120540B5
:10159A00D007D006D005D004D003D002D001D000A5
:0B15AA00D0D0D082D083D0F0D0E0324F
:07107400446353000000007B
:08281E00789CE2541FF2E22253
:10247100E5B154CF42B1789CE254E3F2E24414F264
:10248100E254FCF2E24401F208E24480F2E2442028
:10249100F278A1743BF2187460F2789EE4F208F2CB
:0C24A10012281E44A0F253A8BFD2AF22A4
:0C27F50012281E44C0F243A840D2AF22BC
:1027A50012281E44A0F2789EE4F208F253A8BF2234
:0300210002230DAA
:10230D00C0E0C0F0C083C082C0D075D000C000C096
:10231D0004C005C006C007789DE230E71DE2448089
:10232D00F29063531206C5EF2401FFE43EFEE43D37
:10233D00FDE43CFC9063531206FDD007D006D0059A
:0F234D00D004D000D0D0D082D083D0F0D0E032F6
:09107B00C102C10342633E000002
:102252009063321206C5EF4401FFEC90633202062E
:10226200FD906331E4F09063362290631DE0FEA39B
:10227200E0FF2290631FE0FEA3E0FF22E475F0017D
:102282000205409063377401F0906336E4F02290C7
:102292006311E09F906310E09E22906313E09F9091
:0F22A2006312E09E22906331E004F0E0641822A2
:1027150043A901D2AF75D104907105E4F09071041D
:102725007424F090710174A0F090710074FDF02292
:03002400020D6565
:100D6500C0E0C0F0C083C082C0D075D000C000C054
:100D750001C002C003C004C005C006C007907101D0
:100D8500E020E703020F95E04480F090633A1222D9
:100D95007E90633C12227E90633E12227EC3906356
:100DA5003DE0940D90633CE094004006E4F0A3F030
:100DB500D203C390633BE0940D90633AE094004006
:070DC50006E4F0A3F0D202E6
:100DCC0020833D906338E004F0E0C3941E5003028E
:100DDC000ED4906331E064176003020ED490633933
:100DEC00E09406400AE094145005122252800B90B5
:100DFC006339E0C394014002E0FF122285020ED455
:100E0C00906338E0D394005003020EBAE0D39432CE
:100E1C004012906332120709000000001222630492
:100E2C00F0020EA7906336E06024906338E0C39420
:100E3C0002401BE094075016A3E0C39406400FE059
:100E4C009414500A1222521222A7604F80319063E0
:100E5C0036E06039906338E0C394074030E0941476
:100E6C00502BA3E0C394014024E09406501F9063E0
:100E7C00321206C5EF54FE12225B1222A7601CA38D
:100E8C001206C578011206B212225D800E906332F2
:100E9C0012070900000000122263F0906338E4F09E
:100EAC00A3F0906331E0B41819122285801490637A
:100EBC0036E0700E90633212070900000000122217
:100ECC0063F0906339E004F0906337E0601B90634B
:100EDC0031E4F0906337F0A3F0A3F0906332120684
:090EEC00C59062C01206FDD2059A
:100EF500C390633FE0941490633EE0940050030276
:100F05000F95E4F0A3F0300803020F9512226CD37D
:100F1500122291400990631DE475F00180101222A0
:100F25006CC3122291500A90631D74FFF5F01205EF
:100F350040122275D312229C400990631FE475F07C
:100F4500018010122275C312229C500A90631F74EF
:100F5500FFF5F012054012226C12280C12227512B0
:100F65002815D390631EE0940090631DE094005013
:100F75000512000F80031227C3D3906320E094006D
:100F850090631FE0940050051227B580031227D007
:100F9500D007D006D005D004D003D002D001D000B0
:0B0FA500D0D0D082D083D0F0D0E0325A
:0C1084004263591770C10A426357100004
:10273500E0FEA3E0FF1207BF7B0AE4FAF9F81205F1
:10274500EEE422906358E094DD906357E094042210
:101929007F021225DFEF60127F021225B190635703
:10193900EEF0A3EFF07F02122664300A03021A3593
:10194900D3906358E094EA906357E09401500AE415
:10195900906359F0A3F0021A28D31227485029E0BE
:10196900FEA3E0FFEF2416FFEE34FEFEE434FFFD94
:10197900E434FFFCE47BE07A2EF9F81205631227C0
:101989003D7BDD7A04021A0FD3906358E094EE9000
:101999006357E09408500E7C5D7DC01227357BEEBD
:1019A9007A08021A0FD3906358E09412906357E0B3
:1019B900940B5017E0FEA3E0FF7C177D701207BF60
:1019C9007B0212273F7B127A0B803BD3906358E04E
:1019D90094BC906357E0940C500D7C8C7DA0122729
:1019E900357BBC7A0C801FD3906358E09491906347
:1019F90057E0940F501FE0FEA3E0FF7CBB7D8012EF
:101A0900273A7B917A0FF9F81205EE906359EEF0B7
:101A1900A3EFF0800A9063597417F0A37470F090E3
:101A29006359E07002A3E0700BD20A22C31227485F
:041A39004002C20A9B
:011A3D002286
:1010900041626C00446281FFFFFFFF4662C40000B2
:1010A00000000000C104C1054462C00000000054FB
:1010B000626D0821222324042526272802292A2BB1
:1010C0002C012D2E2F306028629814010203041881
:1010D0000506070810090A0B0C150D0E0F10051157
:1010E000121314081516171806191A1B1C091D1EB1
:1010F0001F205362853200000000000F1200000024
:0C110000040001FF1F0BFF0041626B00A8
:101B3B00740175F02C90630C120540D390630DE08B
:101B4B00947090630CE0941722740175F02C9063E1
:101B5B000E120540D390630FE0947090630EE094E7
:101B6B00172274FE75F0D4120540C390630DE094F8
:101B7B002C90630CE094012274FF75F06A120540FF
:101B8B00C390630DE0949690630CE094002274FE76
:101B9B0075F0D4120540C390630FE0942C90630E44
:101BAB00E094012274FF75F06A120540C390630F35
:101BBB00E0949690630EE094002212069F9062C40C
:101BCB001206E1C302068E9062C00206C57417F0BE
:101BDB00A37470F0229062C9E064C522EE75F00523
:101BEB00A4246DF582E4346222EE75F005A42498EA
:101BFB00F582E43462227B017A6279C47406F0E4E4
:101C0B00FF2212069F9062810206FD9062C41206AB
:051C1B00C5906281226A
:101F0B00200503021FA3C205121BD2EC4D4E4F70CE
:041F1B0003021FA0FE
:101F1F00121BD2EF906321F090626CE0602B906304
:101F2F0021E0540FFBBB010F121BD27804121C0DC2
:101F3F00906321EBF0804A906321E06414704212A9
:101F4F001BD27808121C0D8038121BE0702D906286
:101F5F00C8E0B40113121BD27804121BC57009908C
:101F6F006321E0540FF080199062C8E0B4020A12A6
:101F7F001BD27808121BC56008800090632174FF84
:101F8F00F09062C012070900000000906321E0FF8B
:011F9F00221F
:061FA0007FFF227FFF22FB
:0223EC00A9073F
:1023EE00E4FFFEEB64017014121BE7F583E0B50108
:1023FE0005121BE780180EEEB404ED22EB6402709A
:10240E0021FE121BF4F583E0B50112121BF4F583C5
:10241E00E5822DF582E43583F583E0FF220EEEB4DE
:02242E0008E0C4
:012430002289
:0820CC00906322EFF0A3EDF098
:1020D400E4A3F0A3F090626CE06035121C16121BAE
:1020E400CB7018121BE070139062C8E0B401028038
:1020F400339062C8E064027050803C906322E0FF39
:10210400B414028037906322E0FF6401703B8019AD
:10211400121C16121BCB7031121BE0702C9062C87B
:10212400E0B4010C906322E0FFA3E0FD7B01801189
:102134009062C8E0B40212906322E0FFA3E0FD7B4A
:0E214400021223EC906324EFF0906324E0FF7E
:01215200226A
:100AEF00E4906321F0906296E0F47003020D64E0ED
:100AFF00FFA3E0FD1220CC906321EFF0906296747B
:050B0F00FFF0E4A3F07B
:100B140090626CE06401705A906321E0FF90626B14
:100B2400E06F7044EF64036005EF642F705E9062C1
:100B3400C974C5F09062811206C59062C41206FDA4
:100B4400906321E09062C8B403057402F0800374DA
:100B540001F0E4FF122794906326121C011224ADC5
:100B640090626C7402F08024906321E090626BF0D8
:100B7400801A90626CE0B40213906321E0FF640475
:0C0B84006004EFB43006E490626CF022D4
:100B9000121BE06003020D6490626CE0600F9062D3
:100BA000811206C5121BC8700490626CF09063211C
:100BB000E01207930C00010C00040C0F050C0F0849
:100BC0000C12090C1D0B0C2C0D0C370F0C46110CC4
:100BD00046140C4C150C4C180C52190C611B0C775C
:100BE0001D0C8F1F0CA7210CBA230CDB250CDB2856
:100BF0000CF0290D172B0D3E2D0D3E3000000D641D
:100C00001227DDEF70061227E9EF6003020D4A029A
:100C10000D58121B3B5003020D64020D61E475F088
:100C200096121B405003020D64020D61121B5450BA
:100C300003020D64020D61E475F096121B59500316
:100C4000020D64020D6190630C020CE890630E02C9
:100C50000CE8121B754019121B6D4003020D6480D5
:100C600023121B8B400A121B834003020D64801465
:100C7000E490630C020D54121BA1400C121B99400E
:100C800003020D64E4020D54E490630E020D54124D
:100C90001BB7400C121BAF4003020D64E4020D545D
:100CA000E490630E020D54121B3B4003121BD8123A
:100CB0001B545003020D64020D6190630CE475F047
:100CC00096121B434003121BD890630EE475F096F6
:100CD000121B5C5003020D64020D6190630C740BD7
:100CE000F0A374B8F090630E740BF0A374B8F02204
:100CF000121B754008121B6D500AE48004E49063D7
:100D00000CF0A3F0121BA14008121B995056E4806E
:100D100043E490630E803D121B8B4008121B8350EE
:100D20000AE48004E490630CF0A3F0121BB74008BF
:100D3000121BAF502FE4801CE490630E8016122724
:100D4000DDEF70061227E9EF600EE490630CF0A36C
:100D5000F090630EF0A3F02290630C121BD8906306
:040D60000E121BD87C
:010D6400226C
:1024E40078C0E24408F278C2E2543FF278D0E24481
:1024F40002F278D2E254F3F2209104D2048002C2B0
:102504000430040F906325121C0112251890626C8C
:042514007401F0223C
:04110C0041635E00DD
:1026D300906321F090635B02073A9000061204AC0A
:1026E300FE9000080204AC90000912051E90000C35
:0126F30022C4
:10118300E4906321F07FFFA374FFF090635B120789
:101193005A9000011204ACFE120493FDEEC39D505D
:1011A300030213151226D7900001E412051E9000C6
:1011B3000E1207631207B9EFF4600890635E74239D
:1011C300F0800990635EE06003E014F01226D7908C
:1011D30000031204AC6F60159000051204AC600D9F
:1011E300900004E412051E90000302131190000501
:1011F3001204ACFE9000041204ACC39E500B1226E2
:10120300D790000474010204D91226D79000021269
:1012130004AC6F6048EFF4701C1226DDC39E400AD5
:1012230074041226D390000280611226D790000A1C
:1012330074010213081226D790000874011226EDD8
:101243001204AC6F90635B600C12073A74011226B0
:10125300EAEF02130812073A900009803DEFF47099
:10126300411226D79000091204ACD3940050030214
:10127300130B90000B1204ACFE90000A1204ACD3C3
:101283009E401174011226D390000C1204AC90639B
:1012930022F080541226D790000A74011204D90256
:1012A300130B1226D71226E4C394FF5008900008AC
:1012B30074011204D91226DDB50608906321740265
:1012C300F080201226D79000071226E06E70399026
:1012D300632174031226D69000061204AC90000812
:1012E30012051E906322EFF01226D7E41226EA7449
:1012F300FF12051E906322E090001112051E9063F9
:1013030021E090001212051E1226D7900002EF1260
:02131300051EB5
:0113150022B5
:1027940075AF3F8FAF75AEB975A402E5A530E1FB07
:0127A4002212
:1024AD0090632312075A75AF3F8FAF906326E0C339
:1024BD0094014022E5A530E0FB906323E475F00123
:1024CD00120743120493F5A675AEB975A401906376
:0724DD0026E014F080D52277
:1025180090632212075A906325E06027AE070FEEFA
:102528002400FDE4343F8D82F583E493FE9063221A
:10253800E475F001120743EE12050C906325E014D0
:04254800F080D3222A
:1027820078D2E254CFF2E24410F2907188E4F0C2BF
:02279200922291
:1026AF00C390631EE0945890631DE094025012C3D0
:1026BF00906320E0945890631FE094025003D292ED
:0426CF0022C292226F
:0411100041636001D6
:072826007869E24401F2228F
:1026F40043A902D2AF75D10890710D7401F09071A5
:102704000C745DF090710974A0F090710874FDF080
:0127140022A2
:03002700021A3E7C
:101A3E00C0E0C0F0C083C082C0D075D000C000C06E
:101A4E0001C002C003C004C005C006C007907109E2
:0E1A5E00E020E703021B20907109E04480F0B5
:101A6C0090635FE004F0E0C39408400AA3E06006D2
:101A7C00E4F0906303F090635FE0C3940A4007E4E2
:061A8C00F0D207A304F0F4
:101A9200906303E06004E0B4090E7F0112235C90BE
:101AA20063037401F0021B20906303E0B401081287
:101AB20028267402F08067906303E0B4030D7F026E
:101AC20012235C9063037404F08053906303E0B4C8
:101AD20004081228267405F08044906303E0B405DC
:101AE2000D7F0312235C9063037406F080309063D1
:101AF20003E0B406081228267407F08021906303DD
:101B0200E0B4070D7F0412235C9063037408F08035
:101B12000D906303E0B408061228267409F0D0077A
:101B2200D006D005D004D003D002D001D000D0D04E
:091B3200D082D083D0F0D0E03263
:1011140042600600004262680000426266100041BC
:10112400626A0060406008FFFF00000000000000E9
:1011340000000000000000000000000000000000AB
:10114400000000000000000000000000000000009B
:10115400000000000000000000000000000000008B
:1011640000000000000000416000004160010041F7
:0E117400600200C106426003000041600500F9
:1021D700EF25E0FFEE33FE744A2FF58274603EF57B
:1021E70083227FC37E05E4FDFC9063211206E1D3C1
:1021F70002068EECF0A3EDF0906325E475F0010282
:102207000540D3906317E094B8906316E0940B22CF
:10221700906325E0FEA3E0FFC322906000E025E085
:102227002408F582E43460F58322E4906325F0A363
:10223700F02233FE74082FF58274603EF5832290F6
:0B2247006326E025E0FF906325E02205
:10080A00906321120709000000007F011225DFEF23
:10081A00601A7F011225B1906003EEF0A3EFF07F1A
:10082A0001122664906005E0700204F0906005E011
:10083A007003020AEE906008E0F47003A3E0F4701B
:01084A003F6E
:10084B001222321222179420EE940050159060035E
:10085B00E0FCA3E0FDEF25E0FFEE1222391221FAB6
:10086B0080E1122231122217940EEE94015059900E
:0F087B006003E0FCA3E0FD1221D71221FA80E612
:10088A00122221E0FFA3E0906325CFF0A3EFF090BE
:10089A006003E0FEA3E0FF906325EE8FF0120540AF
:1008AA00906325E0C313FEA3E013FF906325EEF0E7
:1008BA00A3EFF0122221EEF0A3EFF0906000E00423
:0908CA00F0E0C394204002E4F0C8
:1008D3001222319063211206E1122246122239E0DC
:1008E300FEA3E0FFE4FCFD1205569063211206FD12
:1008F3001221FF906325E07004A3E0642070D4907C
:1009030063211206C5780512069F9063211206FD26
:100913009063211206C5AD07AC06906049E025E05F
:10092300FF906048E033FE744A2FF58274603EF511
:1009330083ECF0A3EDF0906048122202C39060496B
:0F094300E0940E906048E094014004E4F0A3F0CB
:10095200122231906268F0A3F09062667410F0A3E4
:10096200E4F0122217940EEE940140030209F512EC
:1009720021D7E0FCA3E0FD906268E0FAA3E0FBD39C
:10098200ED9BEC9A400F1221DEE0FFA3E09062683B
:10099200CFF0A3EFF01222461221DCE0FCA3E0FD2F
:1009A200906266E0FAA3E0FBC3ED9BEC9A500F1253
:1009B20021DEE0FFA3E0906266CFF0A3EFF0906249
:1009C20066E0FEA3E0FFC3906269E09FFF90626869
:1009D200E09EFED3EF9450EE9400400890626A7459
:1009E2001EF0800990626AE06003E014F01221FFB9
:0309F20002096493
:1009F500E47F8B7E06FDFC9063211206E1C312069F
:100A05008E500C3006597F8B7E061221ED4050E446
:100A1500906001F0A3F0D20690626AE0B41E1BE07C
:100A250014F0122209400774FFF5F0120540C312B5
:100A3500220A4003020AEE020AA990626AE06003F4
:100A4500020AEE200203020AEEC202C3906317E017
:100A55009470906316E094174003020AEE803C12EE
:100A650021E94048E47F6D7E061221EE4008906042
:100A750001E064047036300370C203906001E0C386
:100A850094045003E004F0E4906002F0C2061222E0
:100A95000940028043C312220A5006E475F0018022
:100AA5003C906316740BF0A374B8F0221221E94050
:100AB50006906002E0603230032FC203906002743A
:100AC50001F0E4906001F0C206D3906317E094084A
:100AD500906316E09407400874FF75F0FE02054028
:090AE5009063167407F0A304F0FD
:010AEE0022E5
:1000450002034FE86480F8E933E83360110460F097
:10005500ED33EC337009E8FCE9FDEAFEEBFF220421
:1000650060DED3EB9FEA9EE99DE8C2E78CF0C2F71C
:1000750095F0400CE8CCF8E9CDF9EACEFAEBCFFBE8
:1000850012031A85D0F05804700320D5B3E8047024
:10009500075002B2D502035992D5EC0460F7E4CCBF
:1000A500C0E0C398F8603B94186008400DD0E0FBB1
:1000B500020331E4FBFAC9FC8028E830E406E4C910
:1000C500FBE4CAFCE830E305E4C9CACBFCE8540705
:1000D5006010F8C3E913F9EA13FAEB13FBEC13FC10
:1000E500D8F130F52FC3E49CFCEF9BFFEE9AFEEDB3
:1000F50099FDD0E0FBEF4E4D4C701222DB0302035D
:1001050056EC2CFCEF33FFEE33FEED33FDED30E71F
:10011500EB020331EF2BFFEE3AFEED39FDD0E0FBAC
:1001250050130BBB0003020359ED13FDEE13FEEF55
:0801350013FFEC13FC0203317F
:10013D00EC4D6011E8497017ED33EC3304600DE4BC
:10014D00FCFFFEFD22E933E8330470F802034F1281
:10015D00031A58046009E4CC248150062850090282
:10016D000359284003020356C0E0EB4A7044B9809E
:10017D0006D0E0FB020345EF4E701CBD8008EBFF7F
:10018D00EAFEE9FD80EBE98DF0A4FEE5F002022622
:10019D00E9CDF9EAFEEBFFEF89F0A4FCE5F0CE899D
:1001AD00F0A42EFFE435F0CD89F0A42DFEE435F05A
:1001BD008067EF4E7005BD80D780C3EF8BF0A4AC88
:1001CD00F0EE8BF0A42CFCE435F0F8EF8AF0A42CC3
:1001DD00E5F038FCE433CB8DF0A42CFCE5F03BF8D6
:1001ED00EE8AF0A42CFCE5F038F8E433CF89F0A4C6
:1001FD002CFCE5F038CF3400CE89F0A42FFFE5F0CC
:10020D003EFEE433C98DF0A42EFEE5F039CD8AF023
:10021D00A42FFFE5F03EFEE43DFD33D0E0FB50079B
:10022D000BBB000F020359EC2CFCEF33FFEE33FE3A
:06023D00ED33FD02033168
:10024300020359EC5D046005E85904700302034F8F
:1002530012031A580460F6EC4860F2EC7004FDFED9
:10026300FF22C860DB2481C85009C398600250068E
:100273000203569850CAF582E9294B4A7005AB82AE
:1002830002034575F0007C1A7880C3EF9BEE9AED6C
:1002930099400DC3EF9BFFEE9AFEED99FDE842F006
:1002A300DC23ACF0D0E0FFD0E0FED0E0FDAB822059
:1002B300E7101BEB60BAEC2CFCEF33FFEE33FEEDE3
:1002C30033FD020331E803F830E705C0F075F000B1
:1002D300EF2FFFEE33FEED33FD40B830E7C280AAC7
:1002E300EDD2E7CD33EC3392D524814006E4FFFE13
:1002F300FDFC22FCE4CFCECDCC24E0501174FF8072
:10030300EDC3CC13CCCD13CDCE13CECF13CF04700E
:07031300F030D5DE02068088
:101316009063211206FDE4FFFE7D807C3F906321F1
:10132600E0F8A3E0F9A3E0FAA3E0FB12037E70065F
:10133600906321021470906321E0FCA3E0FDA3E01A
:10134600FEA3E0FF120364FBA3E0FCA3E0FDA3E021
:10135600FEA3E0FF120364FFB40108E4FFFE7D80F4
:101366007C3F22EF64046029EB64046024EBB40143
:1013760030E4FFFEFDFC906325E0F8A3E0F9A3E06E
:10138600FAA3E0FB12037E60084006E4FFFEFDFCC4
:1013960022906325120709FFFFFFFF9063250214C1
:1013A60070E4906329F0A3F0FFFEFDFC906321E05A
:1013B600F8A3E0F9A3E0FAA3E0FB12037E505F90E6
:1013C6006325E0FCA3E0FDA3E0FEA3E0FF1202E339
:1013D600906329EEF0A3EFF0FDCCEECCEC12040DF9
:1013E600C8ECC8C9EDC9CAEECACBEFCB906325E0FD
:1013F600FCA3E0FDA3E0FEA3E0FF120048E4FBFA35
:10140600F9F812037E708A906321E0FCA3E0FDA345
:10141600E0FEA3E0FF1203F79063211206FD90633E
:1014260021E0FCA3E0FDA3E0FEA3E0FF12171D9060
:101436006325E0F8A3E0F9A3E0FAA3E0FB12013D7F
:10144600121FDE9063251206FD90632AE030E01736
:10145600906325E0FCA3E0FDA3E0FEA3E0FF1203FA
:10146600F79063251206FD906325E0FCA3E0FDA33B
:06147600E0FEA3E0FF22EE
:10031A00E9D2E7C933E833F892D5EDD2E7CD33EC29
:07032A0033FC5002B2D522A2
:10033100EC30E7100FBF000C0EBE00080DBD00042D
:100341000BEB6014A2D5EB13FCED92E7FD2274FFD9
:10035100FCFDFEFF22E480F8A2D574FF13FC7D8032
:03036100E480EF46
:10036400ED33EC33601004700FED547F70057402AC
:0A03740092E0227404220422E42225
:10037E0074F8CC6480CCC86480C8F58204604FC326
:10038E00EB9FF5F0EA9E42F0E99D42F0E89C45F0C5
:10039E00603C501DE5825FFFE582D313CB5BCBF44F
:1003AE002B5582FB50280ABA002409B90020088078
:1003BE001DE5825BFBE582D313CF5FCFF4C3132F12
:1003CE005582FF50090EBE00050DBD00010CC3EB9A
:1003DE009FF5F0EA9E42F0E99D42F0E89C45F06000
:0903EE0007CC4820E701B3EC2222
:1003F700ED33EC33600A047003BD8004ECB2E7FC14
:0104070022D2
:1004080075F020800E75F010800575F0087D007E6F
:10041800007F003392D530D503120680EC334010AC
:10042800EF33FFEE33FEED33FDEC33FCD5F0ED2278
:0E043800E5F0247EA2D513CC92E7CDCEFF22B4
:101FA60033DA929E35B16011377FE5FE3921848997
:101FB6003AAEC3FF3C1D955B3D6358473E75FDF049
:101FC6003F3172183F800000C2D502035902034F09
:101FD600BD80FA50F3020356ED33EC330460F17B17
:101FE6003B7AAA79B8783F12013DED33EC3392D5AE
:101FF600247B5011A2D570DB500BED448024045095
:1020060004A2D580CEEFFBEEFAEDF9ECF81202E36E
:10201600EFF582F404FC12041212004CC082901FE9
:10202600A67409120455ED33CC33D0F092D525F0C1
:0A203600A2D57001C313CC13FD22E4
:1016E9003E9248DA3ECCCCCD3F2AAAAB400000005E
:1016F9003F8000003F9837F03FB504F33FD744FCE3
:101709003E3172173EB172173F0515913EDE5BD926
:10171900D20B8002C20BEDD2E7F8CD33EC33047063
:101729000BBD800592D502035902034F40FBD31428
:1017390060F2F5F07C3FEE7A00C39496C8948B4032
:10174900230AC89469C8941A401A0AC89468C894A4
:101759001F40110AC8945AC89425400805F07A0018
:10176900CDC2E7CDC0F090632B1206FDEA2323C05A
:10177900E024F9F582E43416F5831206ED12004CE3
:10178900ECC0E0EDC0E0EEC0E0EFC0E01206D190A1
:10179900632B1206E1120048D0E0FBD0E0FAD0E05A
:1017A900F9D0E0B2E7F812024690632B1206FD90D9
:1017B90016E9740312044690632B1206E112013DE7
:1017C900D0E0600F2405F582E43417F5831206EDA5
:1017D90012004C90632B1206FDD0E0C3947FFDE408
:1017E9009400FC12040D7B187A727931783F12014A
:1017F9003D90632B1206E112004C300B0B7BD97A1A
:091809005B79DE783E12013D22FC
:10044600C0E0EFFBEEFAEDF9ECF812013DD0E0F575
:10045600F0EFFBEEFAEDF9ECF81206D1A3A3A3A395
:10046600E8C0E0E9C0E0EAC0E0EBC0E0C0F012019D
:100476003D1206EDA3A3A3A312004CD0F0D0E0FBDF
:0D048600D0E0FAD0E0F9D0E0F8D5F0D422B3
:10204C00021812E493A3F8E493A34003F68001F280
:10205C0008DFF48029E493A3F85407240CC8C33395
:10206C00C4540F4420C8834004F456800146F6DF64
:10207C00E4800B0102040810204080900FB0E47E35
:10208C00019360BCA3FF543F30E509541FFEE49359
:10209C00A360010ECF54C025E060A840B8E493A320
:1020AC00FAE493A3F8E493A3C8C582C8CAC583CA4B
:1020BC00F0A3C8C582C8CAC583CADFE9DEE780BE03
:01118200006C
:10049300BB010689828A83E0225002E722BBFE0267
:0904A300E32289828A83E493229A
:1004AC00BB010CE58229F582E5833AF583E0225005
:1004BC0006E92582F8E622BBFE06E92582F8E2224F
:0D04CC00E58229F582E5833AF583E4932269
:1004D900BB010FF8E58229F582E5833AF583E02827
:1004E900F0225009C58229F8E58226F622BBFE09C9
:1004F900C58229F8E22582F222F8EA2583F583E903
:0305090093282212
:10050C00BB010689828A83F0225002F722BBFE01CE
:02051C00F322C8
:10051E00F8BB010DE58229F582E5833AF583E8F013
:10052E00225006E92582C8F622BBFE05E92582C8BF
:02053E00F222A7
:10054000C5F0F8A3E028F0C5F0F8E5821582700246
:060550001583E038F022E3
:0D055600EF2BFFEE3AFEED39FDEC38FC22F4
:10056300E88FF0A4CC8BF0A42CFCE98EF0A42CFC37
:100573008AF0EDA42CFCEA8EF0A4CDA8F08BF0A4B5
:100583002DCC3825F0FDE98FF0A42CCD35F0FCEB14
:100593008EF0A4FEA9F0EB8FF0A4CFC5F02ECD39D9
:0F05A300FEE43CFCEAA42DCE35F0FDE43CFC2246
:1005B20075F008758200EF2FFFEE33FECD33CDCC00
:1005C20033CCC58233C5829BED9AEC99E582984083
:1005D2000CF582EE9BFEED9AFDEC99FC0FD5F0D660
:1005E200E4CEFBE4CDFAE4CCF9A88222B800C1B98A
:1005F2000059BA002DEC8BF084CFCECDFCE5F0CBC8
:10060200F97818EF2FFFEE33FEED33FDEC33FCEB00
:1006120033FB10D703994004EB99FB0FD8E5E4F9BB
:10062200FA227818EF2FFFEE33FEED33FDEC33FCA8
:10063200C933C910D7059BE99A4007EC9BFCE99A9C
:10064200F90FD8E0E4C9FAE4CCFB2275F010EF2FE1
:10065200FFEE33FEED33FDCC33CCC833C810D707E1
:100662009BEC9AE899400AED9BFDEC9AFCE899F81C
:0E0672000FD5F0DAE4CDFBE4CCFAE4C8F922AF
:0E068000C3E49FFFE49EFEE49DFDE49CFC228B
:10068E00EB9FF5F0EA9E42F0E99D42F0E89C45F0C2
:01069E002239
:10069F00E8600FECC313FCED13FDEE13FEEF13FF39
:0306AF00D8F1225D
:1006B200E8600FEFC333FFEE33FEED33FDEC33FCA6
:0306C200D8F1224A
:0C06C500E0FCA3E0FDA3E0FEA3E0FF22A8
:1006D100E493FC740193FD740293FE740393FF226F
:0C06E100E0F8A3E0F9A3E0FAA3E0FB229C
:1006ED00E493F8740193F9740293FA740393FB2263
:0C06FD00ECF0A3EDF0A3EEF0A3EFF02270
:10070900A8828583F0D083D0821207201207201295
:100719000720120720E473E493A3C583C5F0C583BA
:10072900C8C582C8F0A3C583C5F0C583C8C582C83A
:01073900229D
:09073A00E0FBA3E0FAA3E0F922C0
:10074300F8E0FBA3A3E0F925F0F0E582158270023F
:070753001583E0FA38F022E3
:09075A00EBF0A3EAF0A3E9F022A0
:10076300BB010DE58229F582E5833AF58302073A59
:100773005007E92582F80207ECBBFE07E92582F85A
:100783000207F5E58229F582E5833AF5830207FE40
:10079300D083D082F8E4937012740193700DA3A3F5
:1007A30093F8740193F5828883E473740293686009
:0607B300EFA3A3A380DF09
:0607B9008A838982E473CB
:1007BF00EC8EF0A4CCC5F0CCCDF8EFA4CEC5F02DC7
:1007CF00FDE43CFCE8A42EC8C5F03DFDE43CFCEF85
:0D07DF00A4FFE5F028FEE43DFDE43CFC2213
:0907EC00E6FB08E6FA08E6F92232
:0907F500E2FB08E2FA08E2F92235
:0C07FE00E493FB740193FA740293F92257
:00000001FF
