:03000000021F508C
:0C1F5000787FE4F6D8FD758121021F9710
:0C000300000000000000000000000000F1
:0B25AB00EF1FAC0670011E4C70F62202
:10002A00AB07AA06EB1BAE0270011A4E60097FAA43
:08003A007E051225AB80ED22CA
:101A8300907120E04480F07F057E001225ABE4FFD7
:101A9300FE12002A75A75575AC589071327450F038
:101AA3009071307403F0907136742FF07F18EF2427
:101AB30066FDE434718D82F583E4F00FEFB433EE09
:101AC300904011E4935407FF90711CE054F84FF0D9
:101AD300904017E493547FFF90711DE054804FF0C2
:101AE300904010E493FF5401C43333335480FE9089
:101AF3007123E0547F4EF0EFC313543F4440FFA3E0
:101B0300E054804FF0904012E493FF540FFE907125
:101B130046E054F04EF0EFC4540FFF90714FE05481
:101B2300F04FF0904013E493543FFF907140E05422
:101B3300C04FF0904014E493907126F0904015E468
:0E1B430093907128F0904016E49390712AF070
:011B51002271
:070F9400446330428C0000B1
:10241D007417F0A37470F022C390630EE094709063
:10242D00630DE0941722C3906310E0947090630FD6
:04243D00E0941722EE
:101D7D001224254003021E04122433507AE4FFFE80
:101D8D007D807CBF9063301206E112004CE4FBFABB
:101D9D0079A87842120246E4FBFA798078BF1200E6
:101DAD004C9063341206FD9063301206C5E4FBFAC5
:101DBD00F9783F12004C9063301206FD9063341297
:101DCD0006C59063151206FD7F007E007DA07C4048
:101DDD001212C0E4FBFA7970784212013D1202E34F
:101DED0090630DEEF0A3EFF090630DE0FFA3E09094
:101DFD00630FCFF0A3EFF0122425500512243340CA
:0E1E0D000C90630D12241D90630F12241D22F1
:1016870075D9DD121A8375D95590715EE054FEF055
:1016970075D9BB1223F012251A1224E7121CD31294
:1016A70022E31224A712248612235612252C9063B4
:1016B7004712241D90630B12241D90630712241DEB
:1016C70090630912241DC294E490630DF0A3F09077
:1016D700630FF0A3F0D208906347E0FEA3E0FFC3D7
:1016E70090630EE09F90630DE09E4014906347E087
:1016F700FEA3E0FF906310E09F90630FE09E5028E9
:10170700121797300302C203300905C209121D7D63
:1017170090630DE0FEA3E0FF1225C190630FE0FE8A
:10172700A3E0FF1225CA80AF90630DE0FFA3E0900E
:101737006303CFF0A3EFF090630FE0FFA3E09063A4
:1017470005CFF0A3EFF0C208121797121C1412224C
:10175700A51223BEC29430040C7B017A62798212EF
:10176700112D120AD39062FFE0FEA3E0FF12218C35
:10177700906303EEF0A3EFF0906301E0FEA3E0FFB8
:1017870012218C906305EEF0A3EFF012244180B88C
:100F9B004263071770426309177042630B17704265
:100FAB0062FF17704263031770426301177042634D
:030FBB00051770A7
:0B25B600AC06ECF218EFF27817E222FE
:101CD3007812E24401F278567407F278277417F207
:101CE30018746FF27833E4F218F27819E24401F2CF
:101CF3007811E24401F27817E24401F27812E244E7
:101D030001F27814E24401F27818E24401F278D344
:101D1300E254CFF2E24410F2E254FCF2E24401F264
:101D230090718AE4F090718C740AF07812E24402A4
:101D3300F278577407F278297417F218746FF278EF
:101D430037E4F218F27819E24402F27811E244021D
:101D5300F27817E24402F27812E24402F27814E2D3
:101D63004402F27818E24402F278D3E254F3F2E246
:0A1D73004404F290718B7409F02211
:0925C10078331225B64401F22220
:0925CA0078371225B64402F22212
:0C2587007818E230E0037F01227F002280
:0C2593007818E230E1037F01227F002273
:0D256D007818E24401F290718C740AF0229B
:0E000F007818E254FEF290718CE4F0D2962242
:0D257A007818E24402F290718B7409F0228F
:0E255F007818E254FDF290718BE4F0D29522D0
:10218C00906347E0FCA3E0FD1207BFE47B707A1775
:10219C00F9F81205EED3906308E09F906307E09E78
:1021AC005005E0FEA3E0FFD390630AE09F90630923
:1021BC00E09E5005E0FEA3E0FFD390630CE09F90FF
:0B21CC00630BE09E5005E0FEA3E0FF67
:0121D70022E5
:100FBE004162F800C1014162FA004162F9004162EA
:100FCE00D500602062D6FFFF000000000000000088
:100FDE000000000000000000000000000000000003
:100FEE000000000000004162C7004162C800C1005D
:100FFE004162C9004162CA004462CB000000004257
:09100E0062CF00004262D1FFFF35
:10226600907123E054F8F0E0441EF0907122740758
:10227600F0227FEA7E0B906311FDFC1206E1C30299
:10228600068EE0FF906320E09F90631FE09E229001
:0F22960062CAE0C394142290631FE0FFA3E0220A
:1023F00078F2E24403F278E3E244C0F278F0E25487
:10240000FDF208E254FDF208E2440CF278D0E25406
:0D241000F7F208E254F7F208E244C0F222AD
:10251A0043AA04D2AF786AE24479F27F017E0002CC
:02252A00002A85
:1021D80043AA04D2AFEF24FE601C146021146026C9
:1021E8002403702E907123E054D8F0E0441D12228D
:1021F80070759917801C122266759919801412221D
:1022080066759918800C907123E054D812226C7569
:09221800990B7869E24448F222B6
:102502009062D3E0FEA3E0FF7C007D0C1207BFE4E3
:082512007B0AFAF9F80205EE5C
:101C1400906311120709000000009062F8E064026A
:051C24007003021CD258
:101C29009062C7E004F0E0C394645003021CD2E45C
:011C3900F0BA
:0F1C3A001225029063111206FD9062F8E07028E7
:101C490012227850089062C8E004F08005E490629E
:101C5900C8F09062C8E0C3940AE44007F09062F8C3
:081C690004F0229062F8F02261
:081C71009062F8E06401705973
:101C790020000FD20090633F1207090000000012F4
:0F1C8900259FE47F307E7590633F12227F403AA3
:101C9800E412227850089062C9E004F08005E490CC
:101CA80062C9F09062C9E0C3940A4018E4F09062F7
:101CB800F87402F012254F90633F120709000000E4
:0A1CC80000C200229062F87401F0DF
:011CD20022EF
:1023BE009062F8E07008300728C20702080A90629F
:1023CE00F8E0B4010B906307740BF0A374B8F0221D
:1023DE009062F8E0B4020A9063077405F0A374DC0F
:0223EE00F022DB
:1022A5009062FDE0FEA3E0FF9062FAE0701AD3EFC2
:1022B5009420EE940E5004D2018002C20190630B6B
:1022C5007417F0A37470F022C3EF94C8EE940E4017
:0D22D50002C20190630B7405F0A374DCF0ED
:0122E20022D9
:030042000214267F
:10142600C0E0C0F0C083C082C0D075D000C000C08C
:1014360001C002C003C004C005C006C007786BE245
:0614460020E10302154342
:10144C00AF93EF75F010A4FFE594C4540FFDEF4D6E
:10145C00FF90631FE5F0F0A3EFF0E24402F290621C
:09146C00F9E064026003021513AB
:10147500122295505EE004F0E0C39402404A906267
:10148500CFE0FEA3D3122288400CE0FFA3E09062D8
:10149500CFCFF0A3EFF09062D1E0FEA3C312228874
:1014A500500CE0FFA3E09062D1CFF0A3EFF0906283
:1014B500CB1206E190631FE0FEA3E0FFE4FCFD1202
:1014C50005569062CB1206FD12229550067869E208
:1014D5004401F21222954066A31206C5780412064D
:1014E5009F9062F6EEF0A3EFF09062F97403F0902E
:1014F50062CAE4F09062CFF0A3F09062D174FFF07D
:0C150500A3F09062CB1207090000000068
:1015110080309062F9E0B4050812229D9062FB8050
:101521001C9062F9E0B4070812229D9062D3800DED
:101531009062F9E0B4090B12229D9062FDCFF0A3F5
:02154100EFF0C9
:10154300D007D006D005D004D003D002D001D000FC
:0B155300D0D0D082D083D0F0D0E032A6
:1010170041633E00C109426338000042633A000061
:0510270042633C0000E3
:0725DB00E475F00102054068
:1024E70043A820D2AF75D10178957401F21874769C
:0B24F700F2789174A0F21874FDF2223C
:03001E00021B5270
:101B5200C0E0C0F0C083C082C0D075D000C00078A1
:101B620091E220E703021C07E24480F290633EE028
:101B720004F0E0C3940D4004E4F0D209906283E0E3
:081B8200C394FF5003E004F0DE
:101B8A00300425906269E0601F9063381225DBC338
:101B9A00906339E09460906338E094EA4011E4F08D
:0F1BAA00A3F0906269F08007906338E4F0A3F035
:101BB90030012790633C1225DB90633AE4F0A3F0EF
:101BC900C390633DE0943290633CE09400402FE47D
:101BD900F0A3F09062FA04F0802490633A1225DBB6
:101BE90090633CE4F0A3F0C390633BE094409063BE
:0E1BF9003AE0941F4008E4F0A3F09062FAF086
:0D1C0700D000D0D0D082D083D0F0D0E03219
:07102C0044633F00000000D7
:0825D300789CE2541FF2E222A1
:1022E300E5B154CF42B1789CE254E3F2E24414F2F4
:1022F300E254FCF2E24401F208E24480F2E24420B8
:10230300F278A1743BF2187460F2789EE4F208F25A
:0C2313001225D344A0F253A8BFD2AF2281
:0C259F001225D344C0F243A840D2AF2262
:10254F001225D344A0F2789EE4F208F253A8BF22DA
:0300210002213D7C
:10213D00C0E0C0F0C083C082C0D075D000C000C068
:10214D0004C005C006C007789DE230E71DE244805B
:10215D00F290633F1206C5EF2401FFE43EFEE43D1D
:10216D00FDE43CFC90633F1206FDD007D006D00580
:0F217D00D004D000D0D0D082D083D0F0D0E032C8
:09103300C102C10342632E00005A
:1020DE009063221206C5EF4401FFEC9063220206C4
:1020EE00FD906321E4F09063262290630DE0FEA341
:1020FE00E0FF2290630FE0FEA3E0FF22E475F00103
:10210E000205409063277401F0906326E4F022905C
:10211E006304E09F906303E09E22906306E09F902D
:0F212E006305E09E22906321E004F0E064182234
:1024A70043A901D2AF75D104907105E4F09071048E
:1024B7007424F090710174A0F090710074FDF02203
:03002400020D4981
:100D4900C0E0C0F0C083C082C0D075D000C000C070
:100D590001C002C003C004C005C006C007907101EC
:100D6900E020E703020F79E04480F090632A122122
:100D79000A90632C12210A90632E12210AC39063F0
:100D89002DE0940D90632CE094004006E4F0A3F06C
:100D9900D203C390632BE0940D90632AE094004042
:070DA90006E4F0A3F0D20202
:100DB00020833D906328E004F0E0C3941E500302BA
:100DC0000EB8906321E064176003020EB8906329A7
:100DD000E09406400AE0941450051220DE800B9047
:100DE0006329E0C394014002E0FF122111020EB812
:100DF000906328E0D394005003020E9EE0D3943217
:100E00004012906322120709000000001220EF0434
:100E1000F0020E8B906326E06024906328E0C39478
:100E200002401BE094075016A3E0C39406400FE075
:100E30009414500A1220DE122133604F80319063E7
:100E400026E06039906328E0C394074030E09414B2
:100E5000502BA3E0C394014024E09406501F9063FC
:100E6000221206C5EF54FE1220E7122133601CA3A4
:100E70001206C578011206B21220E9800E90632294
:100E8000120709000000001220EFF0906328E4F040
:100E9000A3F0906321E0B41819122111801490631B
:100EA00026E0700E90632212070900000000122055
:100EB000EFF0906329E004F0906327E0601B9063FB
:100EC00021E4F0906327F0A3F0A3F09063221206D0
:090ED000C59062BD1206FDD205B9
:100ED900C390632FE0941490632EE09400500302B2
:100EE9000F79E4F0A3F0300803020F791220F8D348
:100EF90012211D400990630DE475F0018010122044
:100F0900F8C312211D500A90630D74FFF5F0120504
:100F190040122101D3122128400990630FE475F092
:100F2900018010122101C3122128500A90630F7405
:100F3900FFF5F01205401220F81225C11221011205
:100F490025CAD390630EE0940090630DE09400509D
:100F59000512000F800312256DD3906310E09400F1
:100F690090630FE09400500512255F800312257AE3
:100F7900D007D006D005D004D003D002D001D000CC
:0B0F8900D0D0D082D083D0F0D0E03276
:07103C004263471770C10A6F
:1024C700E0FEA3E0FF1207BF7B0AE4FAF9F8120562
:1024D700EEE422906312E094DD906311E09404220D
:101797009062FBE0FFA3E0906311CFF0A3EFF0307E
:1017A7000A03021898D3906312E094EA906311E059
:1017B7009401500AE4906347F0A3F002188BD31208
:1017C70024DA5029E0FEA3E0FFEF2416FFEE34FEF3
:1017D700FEE434FFFDE434FFFCE47BE07A2EF9F805
:1017E7001205631224CF7BDD7A04021872D390634B
:1017F70012E094EE906311E09408500E7C5D7DC07A
:101807001224C77BEE7A08021872D3906312E09411
:1018170012906311E0940B5017E0FEA3E0FF7C17D2
:101827007D701207BF7B021224D17B127A0B803B9B
:10183700D3906312E094BC906311E0940C500D7C3C
:101847008C7DA01224C77BBC7A0C801FD3906312B7
:10185700E09491906311E0940F501FE0FEA3E0FF26
:101867007CBB7D801224CC7B917A0FF9F81205EEB0
:10187700906347EEF0A3EFF0800A9063477417F088
:10188700A37470F0906347E07002A3E0700BD20A74
:0918970022C31224DA4002C20A45
:0118A0002225
:101043004162690044627EFFFFFFFF4662C1000008
:1010530000000000C104C1054462BD00000000544B
:10106300626A0821222324042526272802292A2B01
:101073002C012D2E2F3060286295140102030418D1
:101083000506070810090A0B0C150D0E0F100511A4
:10109300121314081516171806191A1B1C091D1EFE
:1010A3001F205362823200000000000F1200000074
:0C10B300040001FF1E1BFF0041626800EA
:10199E00740175F02C9062FF120540D3906300E045
:1019AE0094709062FFE0941722740175F02C90638E
:1019BE0001120540D3906302E09470906301E094AD
:1019CE00172274FE75F0D4120540C3906300E094A4
:1019DE002C9062FFE094012274FF75F06A120540AC
:1019EE00C3906300E094969062FFE094002274FE30
:1019FE0075F0D4120540C3906302E0942C906301FD
:101A0E00E094012274FF75F06A120540C3906302E0
:101A1E00E09496906301E094002212069F9062C1BA
:101A2E001206E1C302068E9062BD0206C57417F05F
:101A3E00A37470F0229062C6E064C522EE75F005C4
:101A4E00A4246AF582E4346222EE75F005A424958E
:101A5E00F582E43462227B017A6279C17406F0E485
:101A6E00FF2212069F90627E0206FD9062C1120650
:051A7E00C590627E220C
:101E1B00200503021EB3C205121A35EC4D4E4F704E
:041E2B0003021EB0E0
:101E2F00121A35EF906311F0906269E0602B9063A6
:101E3F0011E0540FFBBB010F121A357804121A7000
:101E4F00906311EBF0804A906311E06414704212BA
:101E5F001A357808121A708038121A43702D906252
:101E6F00C5E0B40113121A357804121A28700990BC
:101E7F006311E0540FF080199062C5E0B4020A12AA
:101E8F001A357808121A286008800090631174FFC1
:101E9F00F09062BD12070900000000906311E0FF8F
:011EAF002210
:061EB0007FFF227FFF22EC
:02222100A9070B
:10222300E4FFFEEB64017014121A4AF583E0B50172
:1022330005121A4A80180EEEB404ED22EB64027004
:1022430021FE121A57F583E0B50112121A57F583CE
:10225300E5822DF582E43583F583E0FF220EEEB4AB
:0222630008E091
:012265002256
:081FDC00906312EFF0A3EDF099
:101FE400E4A3F0A3F0906269E06035121A79121A42
:101FF4002E7018121A4370139062C5E0B401028067
:10200400339062C5E064027050803C906312E0FF3C
:10201400B414028037906312E0FF6401703B8019AE
:10202400121A79121A2E7031121A43702C9062C54A
:10203400E0B4010C906312E0FFA3E0FD7B0180118A
:102044009062C5E0B40212906312E0FFA3E0FD7B4E
:0E20540002122221906314EFF0906314E0FF5B
:01206200225B
:100AD300E4906311F0906293E0F47003020D48E038
:100AE300FFA3E0FD121FDC906311EFF0906293749B
:050AF300FFF0E4A3F098
:100AF800906269E06401705A906311E0FF90626847
:100B0800E06F7044EF64036005EF642F705E9062DD
:100B1800C674C5F090627E1206C59062C11206FDC9
:100B2800906311E09062C5B403057402F080037409
:100B380001F0E4FF12253E906316121A6412231F77
:100B48009062697402F08024906311E0906268F00A
:100B5800801A906269E0B40213906311E0FF6404A4
:0C0B68006004EFB43006E4906269F022F3
:100B7400121A436003020D48906269E0600F9062AC
:100B84007E1206C5121A2B7004906269F0906311EC
:100B9400E01207930BE4010BE4040BF3050BF308D9
:100BA4000BF6090C010B0C100D0C1B0F0C2A110C6D
:100BB4002A140C30150C30180C36190C451B0C5B20
:100BC4001D0C731F0C8B210C9E230CBF250CBF28FE
:100BD4000CD4290CFB2B0D222D0D223000000D48C6
:100BE400122587EF7006122593EF6003020D2E0283
:100BF4000D3C12199E5003020D48020D45E475F098
:100C0400961219A35003020D48020D451219B7504C
:100C140003020D48020D45E475F0961219BC500309
:100C2400020D48020D459062FF020CCC9063010254
:100C34000CCC1219D840191219D04003020D488067
:100C4400231219EE400A1219E64003020D488014DB
:100C5400E49062FF020D38121A04400C1219FC4091
:100C640003020D48E4020D38E4906301020D3812CA
:100C74001A1A400C121A124003020D48E4020D38ED
:100C8400E4906301020D3812199E4003121A3B12BC
:100C940019B75003020D48020D459062FFE475F048
:100CA400961219A64003121A3B906301E475F0965C
:100CB4001219BF5003020D48020D459062FF740BD8
:100CC400F0A374B8F0906301740BF0A374B8F0222D
:100CD4001219D840081219D0500AE48004E4906232
:100CE400FFF0A3F0121A0440081219FC5056E480D5
:100CF40043E4906301803D1219EE40081219E65056
:100D04000AE48004E49062FFF0A3F0121A1A400887
:100D1400121A12502FE4801CE490630180161225ED
:100D240087EF7006122593EF600EE49062FFF0A344
:100D3400F0906301F0A3F0229062FF121A3B9063DB
:040D440001121A3B43
:010D48002288
:1023560078C0E24408F278C2E2543FF278D0E24410
:1023660002F278D2E254F3F2209104D2048002C23F
:102376000430040F906315121A6412238A9062695E
:042386007401F022CC
:0410BF004163460043
:10246500906311F090634302073A9000061204ACA2
:10247500FE9000080204AC90000912051E90000CA5
:012485002234
:10112D00E4906311F07FFFA374FFF0906343120707
:10113D005A9000011204ACFE120493FDEEC39D50B3
:10114D00030212BF122469900001E412051E9000E3
:10115D000E1207631207B9EFF4600890634674230B
:10116D00F08009906346E06003E014F0122469906A
:10117D0000031204AC6F60159000051204AC600DF5
:10118D00900004E412051E9000030212BB900005AE
:10119D001204ACFE9000041204ACC39E500B12243A
:1011AD006990000474010204D9122469900002129E
:1011BD0004AC6F6048EFF4701C12246FC39E400A9C
:1011CD007404122465900002806112246990000A53
:1011DD0074010212B2122469900008740112247F66
:1011ED001204AC6F906343600C12073A7401122421
:1011FD007CEF0212B212073A900009803DEFF470B5
:10120D00411224699000091204ACD39400500302DA
:10121D0012B590000B1204ACFE90000A1204ACD370
:10122D009E4011740112246590000C1204AC906361
:10123D0012F0805412246990000A74011204D9022C
:10124D0012B5122469122476C394FF500890000839
:10125D0074011204D912246FB5060890631174023B
:10126D00F080201224699000071224726E7039905C
:10127D00631174031224689000061204AC900008E8
:10128D0012051E906312EFF0122469E412247C748F
:10129D00FF12051E906312E090001112051E90635F
:1012AD0011E090001212051E122469900002EF1237
:0212BD00051E0C
:0112BF00220C
:10253E0075AF3F8FAF75AEB975A402E5A530E1FB5F
:01254E00226A
:10231F0090631312075A75AF3F8FAF906316E0C3E8
:10232F0094014022E5A530E0FB906313E475F001C2
:10233F00120743120493F5A675AEB975A401906305
:07234F0016E014F080D52216
:10238A0090631212075A906315E06027AE070FEEAA
:10239A002400FDE4343F8D82F583E493FE906312BA
:1023AA00E475F001120743EE12050C906315E01470
:0423BA00F080D322BA
:10252C0078D2E254CFF2E24410F2907188E4F0C217
:02253C009222E9
:10244100C390630EE0945890630DE094025012C360
:10245100906310E0945890630FE094025003D2927D
:0424610022C29222DF
:0410C30041634A013A
:0725E2007869E24401F222D6
:1024860043A902D2AF75D10890710D7401F0907115
:102496000C745DF090710974A0F090710874FDF0F1
:0124A6002213
:030027000218A11B
:1018A100C0E0C0F0C083C082C0D075D000C000C00D
:1018B10001C002C003C004C005C006C00790710981
:0E18C100E020E703021983907109E04480F0F3
:1018CF00906349E004F0E0C39408400AA3E0600687
:1018DF00E4F09062F9F0906349E0C3940A4007E4A2
:0618EF00F0D207A304F093
:1018F5009062F9E06004E0B4090E7F011221D890EE
:1019050062F97401F00219839062F9E0B4010812DA
:1019150025E27402F080679062F9E0B4030D7F025E
:101925001221D89062F97404F080539062F9E0B402
:1019350004081225E27405F080449062F9E0B405CC
:101945000D7F031221D89062F97406F08030906201
:10195500F9E0B406081225E27407F080219062F9D7
:10196500E0B4070D7F041221D89062F97408F08065
:101975000D9062F9E0B408061225E27409F0D0076B
:10198500D006D005D004D003D002D001D000D0D0ED
:09199500D082D083D0F0D0E03202
:1010C7004260030000426265000042626310004113
:1010D70062670060406005FFFF000000000000003D
:1010E70000000000000000000000000000000000F9
:1010F70000000000000000000000000000000000E9
:1011070000000000000000000000000000000000D8
:101117000000000000000041600000416001004144
:05112700600200C1069A
:10206300EF25E0FFEE33FE74472FF58274603EF5F3
:1020730083227FC37E05E4FDFC9063111206E1D346
:1020830002068EECF0A3EDF0906317E475F0010205
:102093000540D390630AE094B8906309E0940B225F
:1020A300906317E0FEA3E0FFC322906000E025E009
:1020B3002405F582E43460F58322E4906317F0A3EA
:1020C300F02233FE74052FF58274603EF58322906F
:0B20D3006318E025E0FF906317E02297
:10080A00906311120709000000009062F6E0FFA34E
:10081A00E0906315CFF0A3EFF0906005E0F4700369
:05082A00A3E0F4703FA3
:10082F001220BE1220A39420EE9400501590631551
:10083F00E0FCA3E0FDEF25E0FFEE1220C5122086BD
:10084F0080E11220BD1220A3940EEE940150599016
:0F085F006315E0FCA3E0FD12206312208680E603
:10086E001220ADE0FFA3E0906317CFF0A3EFF0905E
:10087E006315E0FEA3E0FF906317EE8FF0120540C4
:10088E00906317E0C313FEA3E013FF906317EEF01F
:10089E00A3EFF01220ADEEF0A3EFF0906000E004B5
:0908AE00F0E0C394204002E4F0E4
:1008B7001220BD9063111206E11220D21220C5E06A
:1008C700FEA3E0FFE4FCFD1205569063111206FD3E
:1008D70012208B906317E07004A3E0642070D4901B
:1008E70063111206C5780512069F9063111206FD63
:1008F7009063111206C5AD07AC06906046E025E08F
:10090700FF906045E033FE74472FF58274603EF533
:1009170083ECF0A3EDF090604512208EC390604603
:0F092700E0940E906045E094014004E4F0A3F0EA
:100936001220BD906265F0A3F09062637410F0A37C
:10094600E4F01220A3940EEE940140030209D9129A
:100956002063E0FCA3E0FD906265E0FAA3E0FBD330
:10096600ED9BEC9A400F12206AE0FFA3E0906265CF
:10097600CFF0A3EFF01220D2122068E0FCA3E0FD36
:10098600906263E0FAA3E0FBC3ED9BEC9A500F1272
:10099600206AE0FFA3E0906263CFF0A3EFF09062DD
:1009A60063E0FEA3E0FFC3906266E09FFF9062658E
:1009B600E09EFED3EF9450EE940040089062677478
:1009C6001EF08009906267E06003E014F012208B4D
:0309D600020948CB
:1009D900E47F8B7E06FDFC9063111206E1C31206CB
:1009E9008E500C3006597F8B7E061220794050E4D8
:1009F900906001F0A3F0D206906267E0B41E1BE09C
:100A090014F0122095400774FFF5F0120540C31247
:100A190020964003020AD2020A8D906267E06003C1
:100A2900020AD2200203020AD2C202C390630AE078
:100A39009470906309E094174003020AD2803C1233
:100A490020754048E47F6D7E0612207A4008906048
:100A590001E064047036300370C203906001E0C3A2
:100A690094045003E004F0E4906002F0C2061220FE
:100A79009540028043C31220965006E475F0018028
:100A89003C906309740BF0A374B8F02212207540EE
:100A990006906002E0603230032FC2039060027456
:100AA90001F0E4906001F0C206D390630AE0940873
:100AB900906309E09407400874FF75F0FE02054051
:090AC9009063097407F0A304F026
:010AD2002201
:1000450002034FE86480F8E933E83360110460F097
:10005500ED33EC337009E8FCE9FDEAFEEBFF220421
:1000650060DED3EB9FEA9EE99DE8C2E78CF0C2F71C
:1000750095F0400CE8CCF8E9CDF9EACEFAEBCFFBE8
:1000850012031A85D0F05804700320D5B3E8047024
:10009500075002B2D502035992D5EC0460F7E4CCBF
:1000A500C0E0C398F8603B94186008400DD0E0FBB1
:1000B500020331E4FBFAC9FC8028E830E406E4C910
:1000C500FBE4CAFCE830E305E4C9CACBFCE8540705
:1000D5006010F8C3E913F9EA13FAEB13FBEC13FC10
:1000E500D8F130F52FC3E49CFCEF9BFFEE9AFEEDB3
:1000F50099FDD0E0FBEF4E4D4C701222DB0302035D
:1001050056EC2CFCEF33FFEE33FEED33FDED30E71F
:10011500EB020331EF2BFFEE3AFEED39FDD0E0FBAC
:1001250050130BBB0003020359ED13FDEE13FEEF55
:0801350013FFEC13FC0203317F
:10013D00EC4D6011E8497017ED33EC3304600DE4BC
:10014D00FCFFFEFD22E933E8330470F802034F1281
:10015D00031A58046009E4CC248150062850090282
:10016D000359284003020356C0E0EB4A7044B9809E
:10017D0006D0E0FB020345EF4E701CBD8008EBFF7F
:10018D00EAFEE9FD80EBE98DF0A4FEE5F002022622
:10019D00E9CDF9EAFEEBFFEF89F0A4FCE5F0CE899D
:1001AD00F0A42EFFE435F0CD89F0A42DFEE435F05A
:1001BD008067EF4E7005BD80D780C3EF8BF0A4AC88
:1001CD00F0EE8BF0A42CFCE435F0F8EF8AF0A42CC3
:1001DD00E5F038FCE433CB8DF0A42CFCE5F03BF8D6
:1001ED00EE8AF0A42CFCE5F038F8E433CF89F0A4C6
:1001FD002CFCE5F038CF3400CE89F0A42FFFE5F0CC
:10020D003EFEE433C98DF0A42EFEE5F039CD8AF023
:10021D00A42FFFE5F03EFEE43DFD33D0E0FB50079B
:10022D000BBB000F020359EC2CFCEF33FFEE33FE3A
:06023D00ED33FD02033168
:10024300020359EC5D046005E85904700302034F8F
:1002530012031A580460F6EC4860F2EC7004FDFED9
:10026300FF22C860DB2481C85009C398600250068E
:100273000203569850CAF582E9294B4A7005AB82AE
:1002830002034575F0007C1A7880C3EF9BEE9AED6C
:1002930099400DC3EF9BFFEE9AFEED99FDE842F006
:1002A300DC23ACF0D0E0FFD0E0FED0E0FDAB822059
:1002B300E7101BEB60BAEC2CFCEF33FFEE33FEEDE3
:1002C30033FD020331E803F830E705C0F075F000B1
:1002D300EF2FFFEE33FEED33FD40B830E7C280AAC7
:1002E300EDD2E7CD33EC3392D524814006E4FFFE13
:1002F300FDFC22FCE4CFCECDCC24E0501174FF8072
:10030300EDC3CC13CCCD13CDCE13CECF13CF04700E
:07031300F030D5DE02068088
:1012C0009063111206FDE4FFFE7D807C3F90631168
:1012D000E0F8A3E0F9A3E0FAA3E0FB12037E7006B6
:1012E00090631102141A906311E0FCA3E0FDA3E0E7
:1012F000FEA3E0FF120364FBA3E0FCA3E0FDA3E078
:10130000FEA3E0FF120364FFB40108E4FFFE7D804A
:101310007C3F22EF64046029EB64046024EBB40199
:1013200030E4FFFEFDFC906315E0F8A3E0F9A3E0D4
:10133000FAA3E0FB12037E60084006E4FFFEFDFC1A
:1013400022906315120709FFFFFFFF906315021437
:101350001AE4906319F0A3F0FFFEFDFC906311E026
:10136000F8A3E0F9A3E0FAA3E0FB12037E505F903C
:101370006315E0FCA3E0FDA3E0FEA3E0FF1202E39F
:10138000906319EEF0A3EFF0FDCCEECCEC12040D5F
:10139000C8ECC8C9EDC9CAEECACBEFCB906315E063
:1013A000FCA3E0FDA3E0FEA3E0FF120048E4FBFA8B
:1013B000F9F812037E708A906311E0FCA3E0FDA3AC
:1013C000E0FEA3E0FF1203F79063111206FD9063A5
:1013D00011E0FCA3E0FDA3E0FEA3E0FF1215929054
:1013E0006315E0F8A3E0F9A3E0FAA3E0FB12013DE6
:1013F000121EEE9063151206FD90631AE030E0179E
:10140000906315E0FCA3E0FDA3E0FEA3E0FF120360
:10141000F79063151206FD906315E0FCA3E0FDA3B1
:06142000E0FEA3E0FF2244
:10031A00E9D2E7C933E833F892D5EDD2E7CD33EC29
:07032A0033FC5002B2D522A2
:10033100EC30E7100FBF000C0EBE00080DBD00042D
:100341000BEB6014A2D5EB13FCED92E7FD2274FFD9
:10035100FCFDFEFF22E480F8A2D574FF13FC7D8032
:03036100E480EF46
:10036400ED33EC33601004700FED547F70057402AC
:0A03740092E0227404220422E42225
:10037E0074F8CC6480CCC86480C8F58204604FC326
:10038E00EB9FF5F0EA9E42F0E99D42F0E89C45F0C5
:10039E00603C501DE5825FFFE582D313CB5BCBF44F
:1003AE002B5582FB50280ABA002409B90020088078
:1003BE001DE5825BFBE582D313CF5FCFF4C3132F12
:1003CE005582FF50090EBE00050DBD00010CC3EB9A
:1003DE009FF5F0EA9E42F0E99D42F0E89C45F06000
:0903EE0007CC4820E701B3EC2222
:1003F700ED33EC33600A047003BD8004ECB2E7FC14
:0104070022D2
:1004080075F020800E75F010800575F0087D007E6F
:10041800007F003392D530D503120680EC334010AC
:10042800EF33FFEE33FEED33FDEC33FCD5F0ED2278
:0E043800E5F0247EA2D513CC92E7CDCEFF22B4
:101EB60033DA929E35B16011377FE5FE3921848988
:101EC6003AAEC3FF3C1D955B3D6358473E75FDF03A
:101ED6003F3172183F800000C2D502035902034FFA
:101EE600BD80FA50F3020356ED33EC330460F17B08
:101EF6003B7AAA79B8783F12013DED33EC3392D59F
:101F0600247B5011A2D570DB500BED448024045085
:101F160004A2D580CEEFFBEEFAEDF9ECF81202E35F
:101F2600EFF582F404FC12041212004CC082901EDB
:101F3600B67409120455ED33CC33D0F092D525F0A2
:0A1F4600A2D57001C313CC13FD22D5
:10155E003E9248DA3ECCCCCD3F2AAAAB40000000EA
:10156E003F8000003F9837F03FB504F33FD744FC6F
:10157E003E3172173EB172173F0515913EDE5BD9B3
:10158E00D20B8002C20BEDD2E7F8CD33EC330470F0
:10159E000BBD800592D502035902034F40FBD314B5
:1015AE0060F2F5F07C3FEE7A00C39496C8948B40BF
:1015BE00230AC89469C8941A401A0AC89468C89431
:1015CE001F40110AC8945AC89425400805F07A00A5
:1015DE00CDC2E7CDC0F090631B1206FDEA2323C0F7
:1015EE00E0246EF582E43415F5831206ED12004CFC
:1015FE00ECC0E0EDC0E0EEC0E0EFC0E01206D1902E
:10160E00631B1206E1120048D0E0FBD0E0FAD0E0F6
:10161E00F9D0E0B2E7F812024690631B1206FD9075
:10162E00155E740312044690631B1206E112013D0F
:10163E00D0E0600F247AF582E43415F5831206EDBE
:10164E0012004C90631B1206FDD0E0C3947FFDE4A4
:10165E009400FC12040D7B187A727931783F1201D6
:10166E003D90631B1206E112004C300B0B7BD97AB6
:09167E005B79DE783E12013D2289
:10044600C0E0EFFBEEFAEDF9ECF812013DD0E0F575
:10045600F0EFFBEEFAEDF9ECF81206D1A3A3A3A395
:10046600E8C0E0E9C0E0EAC0E0EBC0E0C0F012019D
:100476003D1206EDA3A3A3A312004CD0F0D0E0FBDF
:0D048600D0E0FAD0E0F9D0E0F8D5F0D422B3
:101F5C00021687E493A3F8E493A34003F68001F2FE
:101F6C0008DFF48029E493A3F85407240CC8C33386
:101F7C00C4540F4420C8834004F456800146F6DF55
:101F8C00E4800B0102040810204080900F94E47E42
:101F9C00019360BCA3FF543F30E509541FFEE4934A
:101FAC00A360010ECF54C025E060A840B8E493A311
:101FBC00FAE493A3F8E493A3C8C582C8CAC583CA3C
:101FCC00F0A3C8C582C8CAC583CADFE9DEE780BEF4
:01112C0000C2
:10049300BB010689828A83E0225002E722BBFE0267
:0904A300E32289828A83E493229A
:1004AC00BB010CE58229F582E5833AF583E0225005
:1004BC0006E92582F8E622BBFE06E92582F8E2224F
:0D04CC00E58229F582E5833AF583E4932269
:1004D900BB010FF8E58229F582E5833AF583E02827
:1004E900F0225009C58229F8E58226F622BBFE09C9
:1004F900C58229F8E22582F222F8EA2583F583E903
:0305090093282212
:10050C00BB010689828A83F0225002F722BBFE01CE
:02051C00F322C8
:10051E00F8BB010DE58229F582E5833AF583E8F013
:10052E00225006E92582C8F622BBFE05E92582C8BF
:02053E00F222A7
:10054000C5F0F8A3E028F0C5F0F8E5821582700246
:060550001583E038F022E3
:0D055600EF2BFFEE3AFEED39FDEC38FC22F4
:10056300E88FF0A4CC8BF0A42CFCE98EF0A42CFC37
:100573008AF0EDA42CFCEA8EF0A4CDA8F08BF0A4B5
:100583002DCC3825F0FDE98FF0A42CCD35F0FCEB14
:100593008EF0A4FEA9F0EB8FF0A4CFC5F02ECD39D9
:0F05A300FEE43CFCEAA42DCE35F0FDE43CFC2246
:1005B20075F008758200EF2FFFEE33FECD33CDCC00
:1005C20033CCC58233C5829BED9AEC99E582984083
:1005D2000CF582EE9BFEED9AFDEC99FC0FD5F0D660
:1005E200E4CEFBE4CDFAE4CCF9A88222B800C1B98A
:1005F2000059BA002DEC8BF084CFCECDFCE5F0CBC8
:10060200F97818EF2FFFEE33FEED33FDEC33FCEB00
:1006120033FB10D703994004EB99FB0FD8E5E4F9BB
:10062200FA227818EF2FFFEE33FEED33FDEC33FCA8
:10063200C933C910D7059BE99A4007EC9BFCE99A9C
:10064200F90FD8E0E4C9FAE4CCFB2275F010EF2FE1
:10065200FFEE33FEED33FDCC33CCC833C810D707E1
:100662009BEC9AE899400AED9BFDEC9AFCE899F81C
:0E0672000FD5F0DAE4CDFBE4CCFAE4C8F922AF
:0E068000C3E49FFFE49EFEE49DFDE49CFC228B
:10068E00EB9FF5F0EA9E42F0E99D42F0E89C45F0C2
:01069E002239
:10069F00E8600FECC313FCED13FDEE13FEEF13FF39
:0306AF00D8F1225D
:1006B200E8600FEFC333FFEE33FEED33FDEC33FCA6
:0306C200D8F1224A
:0C06C500E0FCA3E0FDA3E0FEA3E0FF22A8
:1006D100E493FC740193FD740293FE740393FF226F
:0C06E100E0F8A3E0F9A3E0FAA3E0FB229C
:1006ED00E493F8740193F9740293FA740393FB2263
:0C06FD00ECF0A3EDF0A3EEF0A3EFF02270
:10070900A8828583F0D083D0821207201207201295
:100719000720120720E473E493A3C583C5F0C583BA
:10072900C8C582C8F0A3C583C5F0C583C8C582C83A
:01073900229D
:09073A00E0FBA3E0FAA3E0F922C0
:10074300F8E0FBA3A3E0F925F0F0E582158270023F
:070753001583E0FA38F022E3
:09075A00EBF0A3EAF0A3E9F022A0
:10076300BB010DE58229F582E5833AF58302073A59
:100773005007E92582F80207ECBBFE07E92582F85A
:100783000207F5E58229F582E5833AF5830207FE40
:10079300D083D082F8E4937012740193700DA3A3F5
:1007A30093F8740193F5828883E473740293686009
:0607B300EFA3A3A380DF09
:0607B9008A838982E473CB
:1007BF00EC8EF0A4CCC5F0CCCDF8EFA4CEC5F02DC7
:1007CF00FDE43CFCE8A42EC8C5F03DFDE43CFCEF85
:0D07DF00A4FFE5F028FEE43DFDE43CFC2213
:0907EC00E6FB08E6FA08E6F92232
:0907F500E2FB08E2FA08E2F92235
:0C07FE00E493FB740193FA740293F92257
:00000001FF
